:100000000C94B9030C94D6030C94D6030C94E62AF2
:100010000C94ED130C94D6030C94D6030C94D603D5
:100020000C94D6030C94D6030C94D6030C94D417DA
:100030000C94D6030C94D6030C94D6030C94D603DC
:100040000C9492160C94D6030C949B130C94561398
:100050000C94D6030C94D6030C94D6030C94D603BC
:100060000C94D6030C94D603841C841C841C9B1C07
:10007000B01CB91CC21CCB1CD41CEB1CF71C001DF3
:10008000091D121D241D381D4A1D601D721D7B1D7A
:10009000841D8D1D981D084AD73B3BCE016E84BC44
:1000A000BFFDC12F3D6C74319ABD56833DDA3D00D2
:1000B000C77F11BED9E4BB4C3E916BAAAABE00001B
:1000C00000803F05A84CCDB2D44EB93836A9020CF9
:1000D00050B9918688083CA6AAAA2ABE00000080D2
:1000E0003F5B244C206C617365722D6D6F646520DD
:1000F00044495341424C4544207A2D61786973202C
:100100006E6F726D616C5D0D0A005B244C206C613A
:100110007365722D6D6F646520454E41424C4544B8
:10012000207A2D617869732050574D5D0D0A003E8D
:100130000D0A002C0057506F733A002C002C4D50C4
:100140006F733A003C436865636B003C416C6172BD
:100150006D003C486F6D65003C486F6C64003C521C
:10016000756E003C5175657565003C49646C6500B1
:100170000D0A003D00244E005D0D0A0020460020BF
:100180005400204D3800204D3900204D3500204DC1
:100190003400204D3300204D3200204D3100204DE1
:1001A00030002047393400204739330020473931A7
:1001B00000204739300020473231002047323000DC
:1001C000204731390020473138002047313700209F
:1001D00047005B473830005B4733005B4732005BCA
:1001E0004731005B4730005D0D0A002C005B47394A
:1001F000323A005D0D0A002C0033303A0032383AB2
:100200000035393A0035383A0035373A0035363A54
:100210000035353A0035343A005B47002028686FD6
:100220006D696E672070756C6C2D6F66662C206D25
:100230006D290D0A002028686F6D696E672064655E
:10024000626F756E63652C206D736563290D0A24DA
:1002500032323D002028686F6D696E6720736565D6
:100260006B2C206D6D2F6D696E290D0A2432313D86
:10027000002028686F6D696E6720666565642C20B4
:100280006D6D2F6D696E290D0A2432303D00290DE8
:100290000A2431393D002028686F6D696E6720643B
:1002A000697220696E76657274206D61736B2C20A3
:1002B000696E743A002028686F6D696E67206379F3
:1002C000636C652C20626F6F6C290D0A2431383DF8
:1002D00000202868617264206C696D6974732C2039
:1002E000626F6F6C290D0A2431373D002028696E3A
:1002F00076657274207374657020656E61626C65DA
:100300002C20626F6F6C290D0A2431363D002028A5
:100310006175746F2073746172742C20626F6F6CDE
:10032000290D0A2431353D0020287265706F7274E2
:1003300020696E636865732C20626F6F6C290D0AEB
:100340002431343D0020286E2D646563696D616C35
:10035000732C20696E74290D0A2431333D00202846
:100360006E2D61726320636F7272656374696F6E64
:100370002C20696E74290D0A2431323D0020286139
:1003800072632C206D6D2F7365676D656E74290D1A
:100390000A2431313D0020286A756E6374696F6EDE
:1003A00020646576696174696F6E2C206D6D290D0E
:1003B0000A2431303D002028616363656C657261F9
:1003C00074696F6E2C206D6D2F7365635E32290D1D
:1003D0000A24393D002028737465702069646C65B7
:1003E0002064656C61792C206D736563290D0A2486
:1003F000383D00290D0A24373D00202873746570AC
:1004000020706F727420696E76657274206D6173EE
:100410006B2C20696E743A00202864656661756CE7
:1004200074207365656B2C206D6D2F6D696E290DC1
:100430000A24363D00202864656661756C74206668
:100440006565642C206D6D2F6D696E290D0A24354C
:100450003D002028737465702070756C73652C20C6
:1004600075736563290D0A24343D0020287A2C20F9
:10047000737465702F6D6D290D0A24333D0020289B
:10048000792C20737465702F6D6D290D0A24323D0F
:10049000002028782C20737465702F6D6D290D0A4B
:1004A00024313D0024303D002424202876696577DE
:1004B000204772626C2073657474696E6773290DCE
:1004C0000A242320287669657720232070617261D1
:1004D0006D6574657273290D0A2447202876696555
:1004E0007720706172736572207374617465290D71
:1004F0000A244E20287669657720737461727475BA
:100500007020626C6F636B73290D0A24783D7661ED
:100510006C7565202873617665204772626C207364
:10052000657474696E67290D0A244E783D6C696E96
:10053000652028736176652073746172747570200C
:10054000626C6F636B290D0A24432028636865631E
:100550006B2067636F6465206D6F6465290D0A24E5
:100560005820286B696C6C20616C61726D206C6F17
:10057000636B290D0A2448202872756E20686F6D00
:10058000696E67206379636C65290D0A7E20286394
:1005900079636C65207374617274290D0A212028B7
:1005A0006665656420686F6C64290D0A3F202863C6
:1005B000757272656E7420737461747573290D0A97
:1005C0006374726C2D78202872657365742047728D
:1005D000626C290D0A000D0A4772626C20302E38B9
:1005E0006C61736572205B27242720666F72206818
:1005F000656C705D0D0A005D0D0A004469736162EF
:100600006C656400456E61626C656400436175747D
:10061000696F6E3A20556E6C6F636B6564002724BA
:1006200048277C2724582720746F20756E6C6F63D1
:100630006B00526573657420746F20636F6E74690C
:100640006E7565005B002E204D506F733F0D0A00E4
:1006500041626F727420647572696E67206379639A
:100660006C650048617264206C696D697400414C6E
:1006700041524D3A20000D0A004C696E65206F769C
:100680006572666C6F7700416C61726D206C6F6390
:100690006B0042757379206F7220717565756564A2
:1006A00000454550524F4D20726561642066616976
:1006B0006C2E205573696E672064656661756C7475
:1006C000730056616C7565203C203320757365633B
:1006D0000056616C7565203C20302E3000536574E7
:1006E00074696E672064697361626C656400496E49
:1006F00076616C69642073746174656D656E7400F5
:100700004D6F64616C2067726F75702076696F6CD5
:100710006174696F6E00496E76616C696420726104
:100720006469757300556E737570706F727465646B
:100730002073746174656D656E74004578706563CF
:1007400074656420636F6D6D616E64206C65747494
:10075000657200426164206E756D62657220666F1D
:10076000726D6174006572726F723A20006F6B0D6A
:100770000A0011241FBECFEFD8E0DEBFCDBF11E0CD
:10078000A0E0B1E0E8E6FCE602C005900D92A030E2
:10079000B107D9F717E0A0E0B1E001C01D92AD307C
:1007A000B107E1F70E94D8030C9432360C94000094
:1007B0000F931F930E9423130E94A51E0E94961759
:1007C000789480E1E1EDF5E0DF011D928A95E9F78B
:1007D00081E08093D1058093D20506E011E08091FD
:1007E000D105882389F10E9496130E9405270E9453
:1007F000B9120E9457160E94E7120E940B130E9422
:100800005D280E9469170E9420281092D10510923D
:10081000D3058091FA06982F81FF02C01093E0055E
:100820008091D205813021F494FF02C00093D2055B
:100830008091D205863021F482E00E94992C04C078
:100840001092D2050E948A140E9429140E94061652
:10085000C6CF8091D30584FD15C08091D3058061FA
:100860008093D3050E94ED120E9410138091D2054F
:100870008350833038F48091D30580628093D30510
:100880000E947D170895EF92FF920F931F93CF93CD
:10089000DF937B018C0120E030E040EA51E40E94CC
:1008A000F8340E94F5320E948C32EB010E94E82657
:1008B000C801B70120E030E04AE754E40E94F83470
:1008C0007B018C0182E390E0C89FB001C99F700D4D
:1008D000D89F700D112480E090E00E94B8329B01F7
:1008E000AC01C801B7010E943E310E94F5320E945E
:1008F0008C32DC01CB010E94D62700E911E00EC04A
:100900000E9429148091D105882351F484EF91E04D
:10091000F8013197F1F70197D9F72197209781F7DF
:10092000DF91CF911F910F91FF90EF9008954F921B
:100930005F926F927F928F92AF92BF92CF92DF922F
:10094000EF92FF920F931F93DF93CF9300D000D0CD
:10095000CDB7DEB72B013C0129833A834B835C83FF
:100960008091D205873099F10E9429148091D10598
:10097000882369F50E942B1F8823B1F700D000D08F
:100980000F928E899F89A88DB98DEDB7FEB78183AF
:100990009283A383B4838A8D8583C301B2012981A5
:1009A0003A814B815C810E94BC220F900F900F9086
:1009B0000F900F908091D205882319F482E08093E4
:1009C000D2058091E005882311F00E940E170F9048
:1009D0000F900F900F90CF91DF911F910F91FF908B
:1009E000EF90DF90CF90BF90AF908F907F906F90FF
:1009F0005F904F9008952F923F924F925F926F9227
:100A00007F928F929F92AF92BF92CF92DF92EF929E
:100A1000FF920F931F93CF93DF9385E08093D205CE
:100A200080916B00897F80936B000E948C2A0E94CA
:100A300029148091D105882309F081C08CE0E4ED70
:100A4000F5E0DF011D928A95E9F70E9420281092B7
:100A5000D2053091FB06232F35FD02C06FEF01C098
:100A600061E026FD03C0DD24DA9402C0DD24D394C6
:100A700037FD03C0CC24CA9402C0CC24C394E090B8
:100A80000607F0900707009108071091090700D0AA
:100A900000D00F92CDB7DEB72196772767FD70950E
:100AA000872F972F0E94BA32A80197010E94F8342D
:100AB0001B012C016D2D772767FD7095872F972FD0
:100AC0000E94BA32A80197010E94F8343B014C0100
:100AD0006C2D772767FD7095872F972F0E94BA326C
:100AE000A80197010E94F8347B018C01A0900007B7
:100AF000B0900107C0900207D090030718821982B6
:100B00001A821B8281E08C83C201B101A40193018E
:100B100088240E9497040F900F900F900F900F90D1
:100B20000E940E170E94E8260E9420288091FA0653
:100B300083FF05C080916B00866080936B00DF911E
:100B4000CF911F910F91FF90EF90DF90CF90BF90CA
:100B5000AF909F908F907F906F905F904F903F905D
:100B60002F9008952F923F924F925F926F927F92B3
:100B70008F929F92AF92BF92CF92DF92EF92FF92AD
:100B80000F931F93DF93CF93CDB7DEB7CE54D040F2
:100B90000FB6F894DEBF0FBECDBF3C017EAF6DAF88
:100BA00021965FAF4EAF219722962FAF22972396C3
:100BB0000FAF23972496EFAE24972896ACAEBDAE28
:100BC000CEAEDFAE289729968FAE2997E22EFF246E
:100BD000EE0CFF1CEE0CFF1C4E0D5F1D5CAF4BAF0F
:100BE000DA012D903D904D905C90FC01EE0DFF1DC3
:100BF000C201B10120813181428153810E943F3184
:100C000069AB7AAB8BAB9CAB10E0000F111F000FF0
:100C1000111F2196EEADFFAD2197E00FF11FFAAF46
:100C2000E9AFA080B180C280D380F301E00FF11F53
:100C3000C601B50120813181428153810E943F313B
:100C40006DA77EA78FA798AB24962FAD2497E22F90
:100C5000F0E0EE0FFF1FEE0FFF1F6E0E7F1ED301A1
:100C60008D919D910D90BC91A02D8DAB9EABAFABA6
:100C7000B8AF2DAD3EADE20FF31F6081718182816F
:100C800093812DA93EA94FA958AD0E943E3169A775
:100C90007AA78BA79CA7D201C101B0588DA39EA3B0
:100CA000AFA3B8A7A6019501505829A33AA34BA317
:100CB0005CA34DAD5EADE40EF51ED7016D917D9147
:100CC0008D919C9129A93AA94BA95CA90E943E311A
:100CD0003B014C01EDADFEAD0E0F1F1FD8016D9114
:100CE0007D918D919C912DA53EA54FA558A90E945F
:100CF0003E315B016C016DA17EA18FA198A5A6017B
:100D000095010E94F8347B018C0169A17AA18BA125
:100D10009CA1A40193010E94F8349B01AC01C8017D
:100D2000B7010E943E311B012C016DA17EA18FA154
:100D300098A5A40193010E94F8347B018C0169A15C
:100D40007AA18BA19CA1A60195010E94F8349B0178
:100D5000AC01C801B7010E943F319B01AC01C20147
:100D6000B1010E94B2315B016C01A8968FADA897CA
:100D7000882399F0C601B50120E030E040E050E062
:100D80000E9426348823ECF0C601B5012BED3FE02C
:100D900049EC50E40E943E3112C0C601B50120E08A
:100DA00030E040E050E00E941832181654F0C601BE
:100DB000B5012BED3FE049EC50E40E943F315B016F
:100DC0006C01C601B501A7962CAD3DAD4EAD5FAD32
:100DD000A7970E94F83429A53AA54BA55CA50E94C7
:100DE00033347B018C0120E030E040E050E00E9491
:100DF0001832882309F40CC2C801B7012091EE060D
:100E00003091EF064091F0065091F1060E941F329A
:100E10000E94F5320E948C3278A36F8F2996BFAD65
:100E20002997BB23A1F080E090E00E94B8329B019B
:100E3000AC0128966CAD7DAD8EAD9FAD28970E941C
:100E4000F83428966CAF7DAF8EAF9FAF28972F8D6B
:100E500038A1B90180E090E00E94B8327B018C019A
:100E6000C601B501A80197010E941F326B8F7C8FCC
:100E70008D8F9E8F69A57AA58BA59CA5A80197014A
:100E80000E941F326F8B788F898F9A8F6B8D7C8D2C
:100E90008D8D9E8D20E030E040E05FEB0E94F834C5
:100EA0002B8D3C8D4D8D5E8D0E94F83420E030E01E
:100EB00040E85FE30E943F316B8B7C8B8D8B9E8B78
:100EC00024963FAD2497E32FF0E0EE0FFF1FEE0FC7
:100ED000FF1FCE010196E80FF91FADA8BEA8CFA84D
:100EE000D8ACA082B182C282D38221E030E03E87BA
:100EF0002D87662422965FAD2297452F50E0440F40
:100F0000551F440F551F480F591F2B965FAF4EAF0B
:100F10002B972396BFAD2397AB2FB0E0AA0FBB1F33
:100F2000AA0FBB1FA80FB91F2D96BFAFAEAF2D974D
:100F30002F96FFAFEEAF2F972AC1262D332727FD1F
:100F4000309580910C0790E0281739070CF046C0C7
:100F50006DA17EA18FA198A52B8D3C8D4D8D5E8DB1
:100F60000E94F8347B018C0169A17AA18BA19CA11C
:100F70002B893C894D895E890E94F8349B01AC0124
:100F8000C801B7010E943F317B018C016DA17EA198
:100F90008FA198A52B893C894D895E890E94F834E0
:100FA0005B016C0169A17AA18BA19CA12B8D3C8D69
:100FB0004D8D5E8D0E94F8349B01AC01C601B501D8
:100FC0000E943E316DA37EA38FA398A76394C701AF
:100FD000D80189A39AA3ABA3BCA361C0ED85FE850C
:100FE000BF0180E090E00E94B8322B8D3C8D4D8D8A
:100FF0005E8D0E94F8347B018C01C8010E941C3276
:101000006F87788B898B9A8BB701C8010E947B35DB
:101010003B014C01ABADBCADED90FD900D911C9131
:1010200017FB109517F91095E9ADFAAD20803180C6
:1010300042805380C801B7012F85388949895A8970
:101040000E94F8345B016C01C201B101A40193015B
:101050000E94F8349B01AC01C601B5010E943F31EA
:101060006DA37EA38FA398A7C801B701A401930124
:101070000E94F8347B018C01C201B1012F853889AF
:1010800049895A890E94F8349B01AC01C801B70113
:101090000E943E3169A37AA38BA39CA3662469A90D
:1010A0007AA98BA99CA92DA13EA14FA158A50E9468
:1010B0003F312B96AEADBFAD2B976D937D938D9346
:1010C0009C9313976DA57EA58FA598A929A13AA1F8
:1010D0004BA15CA10E943F312D96EEADFFAD2D9747
:1010E00060837183828393832F96AEADBFAD2F97BC
:1010F0006D917D918D919C912F89388D498D5A8D5F
:101100000E943F312F96EEADFFAD2F976083718324
:101110008283938300D000D00F9269817A818B8182
:101120009C812D813E814F815885E984FA840B850D
:101130001C85AC96ACACBDACCEACDFACAC97ADB75F
:10114000BEB71196AD92BD92CD92DC921497AD963A
:10115000EFADAD971596EC932896ACACBDACCEAC8C
:10116000DFAC289729968FAC29970E9497040F909F
:101170000F900F900F900F908091D105882309F068
:1011800047C02D853E852F5F3F4F3E872D874D857C
:101190005E858F8D98A14817590708F4CECE00D0F0
:1011A00000D00F92ADADBEAD6D917D918D919C91B2
:1011B000139714962D913D914D915C911797189628
:1011C000ED90FD900D911C911B97AC96ACACBDAC15
:1011D000CEACDFACAC97ADB7BEB71196AD92BD92B9
:1011E000CD92DC921497AD96EFADAD971596EC933A
:1011F0002896ACACBDACCEACDFAC289729968FACB2
:1012000029970E9497040F900F900F900F900F90C6
:10121000C25BDF4F0FB6F894DEBF0FBECDBFCF91DC
:10122000DF911F910F91FF90EF90DF90CF90BF90D3
:10123000AF909F908F907F906F905F904F903F9076
:101240002F900895AF92BF92CF92DF92EF92FF92CC
:101250000F931F9359016A010E94BA322091D70659
:101260003091D8064091D9065091DA060E941F327B
:101270006093EE057093EF058093F0059093F10570
:10128000C601B5010E94BA322091DB063091DC061E
:101290004091DD065091DE060E941F326093F205F8
:1012A0007093F3058093F4059093F505C801B70199
:1012B0000E94BA322091DF063091E0064091E106AB
:1012C0005091E2060E941F326093F6057093F70575
:1012D0008093F8059093F9051F910F91FF90EF907F
:1012E000DF90CF90BF90AF9008952F923F924F9292
:1012F0005F926F927F928F929F92AF92BF92CF92A6
:10130000DF92EF92FF920F931F93DF93CF93CDB7AE
:10131000DEB7C454D0400FB6F894DEBF0FBECDBFC9
:101320004C018091D205863019F48CE00C94611246
:1013300019828CE0FE013696DF01682E1D926A94B8
:10134000E9F7FE017296DF011D928A95E9F7109286
:10135000E105222433241FAE1EAE12E0412E512C93
:101360004C0E5D1EB3E0AB2EA2E0BA2E01E0F1E020
:101370006F2E712CA5C12E313105C9F12F313105E8
:10138000D4F42431310584F421313105A4F524301D
:10139000310569F1253031051CF437FF2AC025C01D
:1013A0002A30310511F523C02631310554F12C3195
:1013B0003105D9F41CC02C3531058CF42A353105A2
:1013C000E4F42C3331053CF426333105E4F42533C1
:1013D000310559F40CC02035310539F40AC02C35DB
:1013E000310529F02F35310554F010E00DC011E022
:1013F0000BC012E009C013E007C014E005C016E0FE
:1014000003C017E001C019E02531310509F494C08B
:1014100026313105A4F52430310509F467C02530A3
:101420003105A4F42130310509F465C022303105BD
:1014300024F4232B09F45CC02EC12230310509F4B9
:101440005DC02330310509F026C15BC02231310572
:1014500009F461C0233131054CF42A30310509F417
:1014600043C02131310509F016C14EC02331310589
:1014700009F458C02431310509F00DC15AC0203596
:10148000310509F490C021353105ACF4253331051F
:1014900009F481C0263331054CF42C31310509F4AF
:1014A0004EC02E31310509F0F6C049C02C3331054C
:1014B0000CF0F1C073C02C35310509F47EC02D3518
:1014C00031054CF42A35310509F471C02B3531054D
:1014D00009F0E1C06FC02D35310509F488C02E3503
:1014E000310509F0D8C086C0B2E07FC0E1E04EC04F
:1014F0001092E205D2C00093E205CFC0B092E2059F
:10150000CCC0A092E205C9C01092FB050093FC0577
:10151000B092FD05C2C0B092FB051092FC0500938D
:10152000FD05BBC00093FB05B092FC051092FD05C4
:10153000B4C00093E405B1C01092E405AEC0C70189
:10154000B60120E030E040E251E40E94F8340E940D
:10155000D2350E948732F1E069317F0791F041E096
:101560006A3174072CF46851714009F094C00BC0C3
:1015700081E06C32780749F06D52714009F08BC000
:1015800007C0A4E02FC0B3E030C0E5E0EEAF85C0F7
:10159000F6E0FEAF82C041E04FAF7FC0822F86539E
:1015A0008093FE057AC054E05093E20576C0009324
:1015B000E50573C01092E50570C0C701B60120E0D3
:1015C00030E040E251E40E94F8340E94D2350E949B
:1015D000873283E06839780739F06959734009F038
:1015E0005AC0A8E0AEAF59C0B7E0BEAF56C0009336
:1015F000E30553C01092E30550C02630310534F4A2
:101600002330310554F4772334F403C02E313105EF
:1016100011F010E003C015E001C018E024303105DE
:1016200069F12530310584F421303105B1F12230E2
:1016300031051CF4232BC9F02EC022303105C1F036
:101640002330310541F517C028303105F1F029303C
:10165000310524F425303105F1F414C02930310569
:10166000B9F02E313105B9F403C00093E60515C079
:10167000B092E60512C00093E7050FC0EFEFE093CC
:10168000E7050BC01092E70508C00093E90505C007
:101690001092E90502C0A092E105112389F093019F
:1016A00002C0220F331F1A95E2F7C901822193214C
:1016B000892B21F0F5E0F093E10502C0222A332ABC
:1016C0009981F401E90FF11D10811123A9F0812FF7
:1016D00081548A3110F082E00DC09F5F9983C4016C
:1016E000BE016F5F7F4FA2010E941B27892B09F06B
:1016F00002C781E08093E1058091E105882309F02C
:10170000E0C619820F2EF0E0AF2EF0E0BF2EF0E021
:10171000CF2EF0E0DF2EF02DAEAABFAAC8AED9AE14
:101720004424772421961FAE219722961FAE22973C
:1017300023961FAE239740E824964FAF24975FEB84
:1017400025965FAF25971AAE1BAE1CAE1DAEE6E028
:101750006E2E73E0572E61C1EA80FB800C811D81E3
:10176000C801B70120E030E040E050E00E941832AC
:10177000181614F06092E1058091E305882381F04A
:101780008091E405882309F43AC1C801B70123E335
:1017900033E34BEC51E40E94F8347B018C012FC100
:1017A0008091E405882351F0C801B70123E333E3B6
:1017B0004BEC51E40E94F8347B018C01E092EA0585
:1017C000F092EB050093EC051093ED050AC12A8118
:1017D0003B814C815D818091E405882351F0CA01F1
:1017E000B90123E333E34BEC51E40E94F8349B014D
:1017F000AC01E12FFF27E7FDF095E954F040EE0F33
:10180000FF1FEE0FFF1F61E070E06C0F7D1FE60F02
:10181000F71F218B328B438B548BE3C06A817B8112
:101820008C819D810E94D2350E948C32462ED9C077
:10183000AA80BB80CC80DD80D4C08A819B81AC81B2
:10184000BD818EAB9FABA8AFB9AF8091E405882373
:1018500009F4C7C06EA97FA988AD99AD23E333E32E
:101860004BEC51E40E94F8346EAB7FAB88AF99AF7C
:10187000B8C06A817B818C819D810E94D2350E9493
:101880008732CB0177FF03C06092E10506C06F3F4E
:10189000710519F014F08FEF90E08093E805A1C076
:1018A000EA80FB800C811D81C801B70120E030E097
:1018B00040E050E00E941832882314F46092E10561
:1018C000C801B7010E94D2350E948C326093FA059C
:1018D00088C02A813B814C815D818091E405882309
:1018E00051F0CA01B90123E333E34BEC51E40E9408
:1018F000F8349B01AC012E833F834887598791E0E0
:10190000792A6FC02A813B814C815D818091E405F9
:10191000882351F0CA01B90123E333E34BEC51E4CE
:101920000E94F8349B01AC012A873B874C875D8776
:10193000A2E07A2A56C0B4E07B2A6A817B818C813E
:101940009D810E9487326AAF7BAF8CAF9DAF0E94B2
:1019500025178823D9F040E050E060E070E04E8722
:101960005F87688B798B22968FAD229723969FADE8
:1019700023972496AFAD24972596BFAD25977C017C
:101980008D0151E021965FAF219739C02A813B81BB
:101990004C815D818091E405882351F0CA01B90131
:1019A00023E333E34BEC51E40E94F8349B01AC0198
:1019B0002E873F87488B598B22968FAD229723968F
:1019C0009FAD23972496AFAD24972596BFAD25975D
:1019D0007C018D0161E021966FAF219710C050927C
:1019E000E10522968FAD229723969FAD23972496EB
:1019F000AFAD24972596BFAD25977C018D01D80109
:101A0000C7012296EFAE229723969FAF2397249685
:101A1000AFAF24972596BFAF25979981F401E90FC1
:101A2000F11D10811123B9F0812F81548A3110F0FA
:101A300082E00FC09F5F9983C401BE016F5F7F4F3B
:101A4000AE014E5F5F4F0E941B27892B09F066C5D0
:101A500081E08093E1058091E105882309F031C59B
:101A60008091D205873041F08091E7050E94EF1206
:101A70008091E9050E94121331FE13C08E01025EAF
:101A80001F4F8091FE05B8010E947A1E882309F439
:101A900017C5AFEFB5E0F8018CE001900D928150D1
:101AA000E1F77EAD743009F497C1753048F47230B7
:101AB00051F1733008F0B2C0713009F0E5C10EC0C9
:101AC0008EAD863009F488C1863008F4A7C087300F
:101AD00009F48DC1883009F0D7C1CDC1C601B50167
:101AE00020E030E040E050E00E94183288230CF4FF
:101AF00080C18091D205873009F4C6C1C601B50105
:101B00000E944304C1C192E0491619F0A4E14A16AB
:101B100049F4C601B5010E94D2350E948732673070
:101B2000710520F083E08093E105ADC1772021F4B9
:101B3000B2E04B1609F45DC1161617062CF44B01E2
:101B400008948108910804C08091FE05882E99248C
:101B5000582C8E01025E1F4F882DB8010E947A1EFC
:101B6000882309F4ADC42EEEA22E25E0B22E96E015
:101B7000C92ED12CCC0EDD1E780100E010E0672CC0
:101B80007724C301002E02C0959587950A94E2F749
:101B900080FF20C0E4E14E1699F4D5016D917D914E
:101BA0008D919C91F60120813181428153810E9467
:101BB0003E31D7016D937D938D939C9313970AC00B
:101BC000F60180819181A281B381F70180839183A5
:101BD000A283B3830F5F1F4F44E050E0A40EB51EF5
:101BE000C40ED51EE40EF51E0330110551F68E010C
:101BF000025E1F4F852DB8010E946F1E8091FE0569
:101C000090E08815990509F03EC1AFEFB5E0F80105
:101C10008CE001900D928150E1F735C1772009F4F5
:101C200092C08E010A5F1F4F8EEEE82E85E0F82EDF
:101C3000CC24DD24A72CBB24C5010C2C02C0959517
:101C400087950A94E2F780FF35C08091E5058823E7
:101C5000F9F0D70151966D917D918D919C9154979A
:101C60005D962D913D914D915C9190970E943F31F1
:101C70009B01AC01F80160817181828193810E9496
:101C80003F31D8016D937D938D939C9313971CC026
:101C9000F8016081718182819381D7012D913D91FD
:101CA0004D915C910E943F31F80160837183828382
:101CB00093830AC0F70180819181A281B381F801E9
:101CC00080839183A283B3830894C11CD11C0C5FD1
:101CD0001F4FB4E06B2E712CE60CF71C43E0C416CA
:101CE000D10409F0A9CF00D000D00F926E817F817E
:101CF000888599852A853B854C855D85EE84FF84A2
:101D000008891989A090E906B090EA06C090EB0610
:101D1000D090EC066AAC7BAC8CAC9DACADB7BEB7DA
:101D200011966D927D928D929C9214972196EFADB3
:101D300021971596EC9388240E9497040F900F909A
:101D40000F900F900F90BE01665D7F4FFEADF53096
:101D500011F487E001C086E00E947A1E882309F40E
:101D6000AFC300D000D00F926AA57BA58CA59DA51E
:101D70002EA53FA548A959A9EAA8FBA80CA91DA909
:101D8000A090E906B090EA06C090EB06D090EC0671
:101D90006AAC7BAC8CAC9DACADB7BEB711966D9206
:101DA0007D928D929C9214972196EFAD2197159676
:101DB000EC9388240E949704AEEEB5E0FE01BA963B
:101DC0008CE001900D928150E1F777240F900F90F5
:101DD0000F900F900F9058C0FEADF63011F487E0D1
:101DE00001C086E06EEE75E00E946F1E4DC0772048
:101DF00021F486E08093E10547C00EEE15E0A6E0F1
:101E0000CA2ED12CCC0EDD1EEE24FF24A72CBB2421
:101E1000C5010E2C02C0959587950A94E2F780FFC4
:101E20001CC0D8016D917D918D919C911397519615
:101E30002D913D914D915C9154970E943E31F60158
:101E400020813181428153810E943E31D8015D96CB
:101E50006D937D938D939C9390970894E11CF11C56
:101E60000C5F1F4FE4E0F0E0CE0EDF1EF3E0EF1654
:101E7000F10471F608C08CE0EBE0F6E0DF011D92A2
:101E80008A95E9F701C0772422FC03C0772009F482
:101E900003C38091E3058823D9F022966FAD229782
:101EA00023967FAD239724968FAD249725969FADDB
:101EB000259720E030E040E050E00E94183288236F
:101EC0003CF48091E205843019F086E08093E105CE
:101ED000BFADBB2339F08091E205823018F086E077
:101EE0008093E1058091E105882309F0EAC28E0123
:101EF0000A5F1F4FFEEEEF2EF5E0FF2ECC24DD240F
:101F0000A72CBB24C5010C2C02C0959587950A947B
:101F1000E2F780FF39C0EFADEE2309F03FC08091BA
:101F2000E5058823F9F0D70151966D917D918D914A
:101F30009C9154975D962D913D914D915C91909718
:101F40000E943F319B01AC01F80160817181828167
:101F500093810E943F31D8016D937D938D939C9323
:101F600013971CC0F8016081718182819381D70130
:101F70002D913D914D915C910E943F31F80160831C
:101F80007183828393830AC0F70180819181A2814A
:101F9000B381F80180839183A283B3830894C11C29
:101FA000D11C0C5F1F4FE4E08E2E912CE80CF91C25
:101FB00043E0C416D10409F0A5CF8091E205843036
:101FC00048F4823008F089C0882359F0813009F044
:101FD00056C234C0843009F052C2772009F44FC28F
:101FE000C8C0772009F4C5C000D000D00F926E8120
:101FF0007F81888599852A853B854C855D85EE8422
:10200000FF8408891989A090E906B090EA06C0907B
:10201000EB06D090EC066AAC7BAC8CAC9DACADB75B
:10202000BEB711966D927D928D929C9214972196D7
:10203000EFAD21971596EC93882447C0772009F4DB
:1020400098C06E817F81888599852A853B854C85DE
:102050005D85EE84FF84088919898090E3058820D6
:10206000A1F4F091EA052296FFAF22976090EB056C
:1020700023966FAE23977090EC0524967FAE24973D
:102080009090ED0525969FAE259700D000D00F9239
:10209000AAACBBACCCACDDACADB7BEB71196AD92C3
:1020A000BD92CD92DC9214972196EFAD21971596B3
:1020B000EC932296AFAC22972396BFAC239724963D
:1020C000CFAC24972596DFAC25970E9497040F90FC
:1020D0000F900F900F900F90D2C181E090E0009090
:1020E000FD0502C0880F991F0A94E2F780957822B7
:1020F00009F43FC06EA97FA988AD99AD20E030E01A
:1021000040E050E00E941832882309F043C0E0917B
:10211000FB05F0E0EE0FFF1FEE0FFF1F8E010F5FBC
:102120001F4FE00FF11FC188D288E388F488C701F0
:10213000B60120E030E040E050E00E9418328823F1
:10214000E1F48091FC0590E0880F991F880F991F9A
:10215000080F191FD80151966D917D918D919C9119
:10216000549720E030E040E050E00E94183288238D
:1021700021F486E08093E10582C16EA97FA988AD34
:1021800099AD20E030E040E050E00E941832882312
:1021900009F4F8C0E091FB05F0E0EE0FFF1FEE0F31
:1021A000FF1F8E010F5F1F4FD801AE0FBF1FEF51F2
:1021B000FA4F15966D917D918D919C91189725857B
:1021C0003685478550890E943E311B012C01E091E4
:1021D000FC05F0E0EE0FFF1FEE0FFF1F0E0F1F1F9D
:1021E000EF51FA4FD80115966D917D918D919C918B
:1021F000189725853685478550890E943E313B01D9
:102200004C018CE0FE017296DF011D928A95E9F780
:102210006EA97FA988AD99AD20E030E040E850E498
:102220000E94F8342EA93FA948AD59AD0E94F83458
:102230007B018C01C201B101A20191010E94F8341D
:102240009B01AC01C801B7010E943E317B018C01AA
:10225000C401B301A40193010E94F8349B01AC01B5
:10226000C801B7010E943E317B018C0120E030E0C3
:1022700040E050E00E941832882324F484E08093E8
:10228000E1051FC1C801B7010E9485357B018C01A2
:10229000C201B101A40193010E9433349B01AC013E
:1022A00017FB109517F91095C801B7010E941F324E
:1022B0006B017C018091E205833021F4F7FAF09400
:1022C000F7F8F0946EA97FA988AD99AD20E030E0D1
:1022D00040E050E00E94183288236CF4F7FAF09442
:1022E000F7F8F0944EA95FA968AD79AD70584EAB80
:1022F0005FAB68AF79AF0091FB05A02EBB24AA0CA1
:10230000BB1CAA0CBB1C8E010F5F1F4FA00EB11E81
:10231000C401B301A70196010E94F8349B01AC01EE
:10232000C201B1010E943E3120E030E040E05FE3B5
:102330000E94F834D50151966D937D938D939C93B3
:1023400054978091FC0590E0880F991F880F991F82
:10235000080F191FC201B101A70196010E94F834AC
:102360009B01AC01C401B3010E943F3120E030E089
:1023700040E05FE30E94F834F801618B728B838B3D
:10238000948B15C0E091FC05F0E0EE0FFF1FEE0FFF
:10239000FF1FEC0FFD1F2289338944895589C7012E
:1023A000B6010E9433346EAB7FAB88AF99AF90918A
:1023B000E2052091FB050091FC05E090FD05809071
:1023C000E3058820A1F4F091EA052296FFAF229759
:1023D0006090EB0523966FAE23977090EC052496E2
:1023E0007FAE24979090ED0525969FAE25974DB72B
:1023F0005EB74A5050400FB6F8945EBF0FBE4DBF57
:10240000EDB7FEB73196AEA8BFA8C8ACD9ACADB792
:10241000BEB71196AD92BD92CD92DC92149780E03A
:10242000923009F481E08483AAACBBACCCACDDACC7
:10243000A582B682C782D0862196BFAC2197B1868D
:102440008EEE95E0BE016A5F7F4FAE014E5E5F4F3C
:102450002296AFAC22972396BFAC23972496CFAC9D
:1024600024972596DFAC25970E94B2054DB75EB73D
:10247000465F5F4F0FB6F8945EBF0FBE4DBF8091B1
:10248000E1058823F1F4AEEEB5E0FE0136968CE06E
:1024900001900D928150E1F78091E605882369F063
:1024A0000E94E8261092E0058091E605823019F43A
:1024B0000E94290402C01092E6058091E10501C046
:1024C0008AE0CC5BDF4F0FB6F894DEBF0FBECDBF06
:1024D000CF91DF911F910F91FF90EF90DF90CF9000
:1024E000BF90AF909F908F907F906F905F904F9034
:1024F0003F902F900895CA80DB80EC80FD80C7015B
:10250000B6010E94D2350E9487329B01173411F424
:102510000C94BB091D3409F0D3C86FC81F3484F470
:102520001D340CF05ECA1C340CF078C919340CF060
:102530004EC9163409F410C9173409F050CA51CAEB
:10254000143509F4ADC9153554F4123509F475C9BB
:1025500013350CF08EC9103509F041CA69C9193517
:1025600009F4D0C91A3509F4E6C9183509F037CA93
:10257000B0C9E1EEF5E086E3DF011D928A95E9F747
:102580008091E5069091E606A091E706B091E806F5
:102590008093EA059093EB05A093EC05B093ED05CD
:1025A0001092FB0591E09093FC0582E08093FD057D
:1025B0009093E5058091FE05BF01625E7F4F0E940A
:1025C0007A1E882319F48AE00E94C32C0895109281
:1025D0000001249A259A2C9808952C9808951F9309
:1025E000182F282F332727FD30958091000190E088
:1025F0002817390771F00E94E826112339F01116C7
:1026000014F42D9801C02D9A2C9A01C02C98109387
:1026100000011F910895109201013B9A439808957B
:10262000439808951F93182F80910101181749F0BE
:102630000E94E826113011F4439A01C04398109388
:1026400001011F910895E0ECF0E0808182608083B9
:102650001092C50080E18093C400E1ECF0E080813D
:1026600080618083808188608083808180688083AE
:102670000895282FE09104019E2F9F5F903431F43C
:1026800090E004C08091D30584FD0FC080910501C6
:102690009817C1F3F0E0E956F94F208390930401B5
:1026A0008091C10080628093C10008951F920F92B3
:1026B0000FB60F9211248F939F93EF93FF93809106
:1026C0000501E82FF0E0E956F94F90819093C6009C
:1026D000982F9F5F903409F490E0909305018091CA
:1026E0000401981729F48091C1008F7D8093C10067
:1026F000FF91EF919F918F910F900FBE0F901F90C0
:1027000018959091030180910201891711F48FEFC0
:102710000895E92FF0E0E95EF94F8081E92FEF5F3E
:10272000E03809F4E0E0E0930301089580910201AC
:102730008093030108951F920F920FB60F921124F8
:102740002F933F934F935F936F937F938F939F93B9
:10275000AF93BF93EF93FF932091C6002132A1F076
:10276000223218F42831B9F413C02F3319F02E3760
:1027700091F404C08091D305816003C08091D3059A
:1027800082608093D30518C08091D3058860F9CF0B
:102790000E94290411C0E09102019E2F9F5F903892
:1027A00009F490E080910301981731F0F0E0E95EC0
:1027B000F94F208390930201FF91EF91BF91AF9168
:1027C0009F918F917F916F915F914F913F912F9149
:1027D0000F900FBE0F901F9018951F920F920FB67B
:1027E0000F9211242F933F934F935F936F937F9397
:1027F0008F939F93AF93BF93EF93FF9386B190E036
:102800008095909587709070892B91F0309903C0D6
:102810000E9429040DC0319904C08091D3058860BD
:1028200005C0329905C08091D30582608093D3059D
:10283000FF91EF91BF91AF919F918F917F916F9198
:102840005F914F913F912F910F900FBE0F901F906E
:102850001895CF93DF938091D305882309F457C04F
:102860008091D305C82FD0E0CE0180769070892B5F
:10287000E9F086E08093D205C6FF10C08FEF0E947A
:10288000233181E00E94992C8091D3058F7E809323
:10289000D3058091D30584FFFCCF03C08EEF0E9447
:1028A00023318091D3058F798093D305C4FF04C071
:1028B00081E08093D1052BC0C0FF07C00E941E2D70
:1028C0008091D3058E7F8093D305C3FF07C00E94FC
:1028D00018178091D305877F8093D305C2FF07C067
:1028E0000E9428178091D3058B7F8093D305C1FF69
:1028F0000EC00E940E178091FA0681FF03C081E08E
:102900008093E0058091D3058D7F8093D305DF917F
:10291000CF91089580E066E071E00E94E61E882372
:1029200069F080910601882361F086E091E00E94C1
:10293000762C86E091E00E94750901C08AE00E9431
:10294000C32C81E066E071E00E94E61E882321F43A
:102950008AE00E94C32C089580910601882351F0DB
:1029600086E091E00E94762C86E091E00E94750955
:102970000E94C32C0895DF92EF92FF920F931F9352
:10298000DF93CF93CDB7DEB729970FB6F894DEBFAC
:102990000FBECDBF7C01FC018081843221F0C701D4
:1029A0000E9475091BC181E08983F7018181883408
:1029B00009F476C0893484F4833409F446C084343D
:1029C0003CF4833201F18432A1F0882379F0A5C070
:1029D000873409F0A2C021C08E3409F478C088354C
:1029E00009F44CC08C3409F098C021C00E948F2C8F
:1029F000FDC082E08983F7018281882309F0F0C05D
:102A00000E94C52FF3C082E08983F7018281882369
:102A100009F0E6C00E94072FE9C082E08983F70130
:102A20008281882309F0DCC00E941B2EDFC082E077
:102A3000898390E0F7018281803309F091E0892F4A
:102A40000E9422170E94832CD1C082E08983F70163
:102A50008281882309F0C4C08091D205873021F497
:102A60000E94290485E007C0882309F0BBC087E0E5
:102A70008093D20584E00E94992CB8C082E08983BB
:102A8000F7018281882309F0ABC08091D20586309E
:102A900009F0ACC083E00E94992C1092D205A6C028
:102AA0008091FA0684FD02C017E0A1C08091D20592
:102AB000882319F0863009F095C00E94FB048091AC
:102AC000D105882309F092C00E948A148FC082E049
:102AD0008983F7018281882319F0DD24D3941EC0F5
:102AE00080E0B7010E94E61E882329F080E0B7014C
:102AF0000E94E22E03C08AE00E94C32C81E0B7014D
:102B00000E94E61E882321F48AE00E94C32C6EC036
:102B100081E0B7010E94E22E69C0DD24C7018E0169
:102B20000F5F1F4FB801AE014E5F5F4F0E941B2722
:102B3000892B09F459C09981F701E90FF11D8081B2
:102B40008D3309F04DC0892F8F5F8983DD2041F1DE
:102B5000482F50E02981822F90E0FC01E41BF50B07
:102B6000EE0DFF1DD701A80FB91F8C9180838C91AA
:102B70002F5F2983882371F7C7010E947509182FD9
:102B80008823A9F56A817B818C819D810E94D23541
:102B90000E948C32DC01CB01B7010E94DB1E27C0F2
:102BA000C701B801AE014A5F5F4F0E941B27892B06
:102BB000D9F08981E80EF11CF7018081882381F426
:102BC0006A817B818C819D810E948732DC01CB01EF
:102BD0004E815F81688579850E946D1C182F07C022
:102BE00013E005C01BE003C011E001C010E0812F1D
:102BF00029960FB6F894DEBF0FBECDBFCF91DF91FF
:102C00001F910F91FF90EF90DF9008951F9311E0B7
:102C100046C02A3011F02D30B1F40E942914809161
:102C2000D105882309F041C0E0914C01EE2349F021
:102C3000F0E0EA5FFE4F108286E091E00E94BB1454
:102C400017C080E015C080914D01882319F029320A
:102C500031F512C0213218F12F3209F1283219F45E
:102C600010934D011CC090914C01953440F08DE0C3
:102C70000E94C32C10924C0110924D0110C0822F63
:102C80008156E92FF0E09F5F8A3120F4EA5FFE4F22
:102C9000205202C0EA5FFE4F208390934C010E94B5
:102CA0008113282F8F3F09F0B4CF1F910895109200
:102CB0004C0110924D010E94942C87B1887F87B9F6
:102CC00088B1876088B9ECE6F0E080818760808316
:102CD000E8E6F0E080818260808308958091FA06C2
:102CE00082FF02C0289A01C028988091D2058330C3
:102CF000C1F48091ED06809377018091E40690E025
:102D0000A0E0B0E00297A109B109880F991FAA1F9E
:102D1000BB1F81958093760180916F0082608093C4
:102D20006F0008951F920F920FB60F9211248F9388
:102D30009F939BB18091ED068C71937E892B8BB90B
:102D400015BC9F918F910F900FBE0F901F901895FB
:102D50009B01AC01203283E0380780E0480780E027
:102D6000580720F420E233E040E050E060E070E7F4
:102D700088E399E30E941036C901DA01803020E02F
:102D8000920721E0A20720E0B20730F4BC019C01C9
:102D900040E050E091E02FC0803020E0920728E032
:102DA000A20720E0B207A0F423E0B695A795979577
:102DB00087952A95D1F7BC019C0140E050E0A3E043
:102DC000220F331F441F551FAA95D1F792E013C05D
:102DD000F6E0B695A79597958795FA95D1F7BC013A
:102DE0009C0140E050E0E6E0220F331F441F551FD6
:102DF000EA95D1F793E080918100887F982B90939A
:102E0000810070938900609388002093640130935F
:102E10006501409366015093670108958091D20542
:102E2000823029F483E08093D2050E946E160895C3
:102E30008091D205833029F484E08093D2051092EA
:102E4000E005089580934E01089580914E01089504
:102E5000E0917401F09175013097C1F16685778535
:102E600080899189209160013091610140916201D6
:102E700050916301621B730B840B950B0E946C22B3
:102E800010926C0110926D0110926E0110926F0100
:102E900060E070E080E090E00E94A81680E091E79A
:102EA000A2E0B0E08093680190936901A0936A0169
:102EB000B0936B0110926001109261011092620157
:102EC0001092630182E08093D20508951092D2059A
:102ED000089584E2E0E5F1E0DF011D928A95E9F7CB
:102EE00060E273E080E090E00E94A8161092750105
:102EF0001092740110927801089580916F008D7F77
:102F000080936F0090910A079F3F21F48091D30531
:102F100085FF0BC0892F90E00E94D6278091FA068A
:102F200082FF02C028980895289A08958AB18C6F6C
:102F30008AB98BB183709091ED06892B8BB9209A59
:102F4000E1E8F0E080818F7E8083808188608083EB
:102F5000E0E8F0E080818D7F808380818E7F8083B8
:102F600080818F73808380818F7C8083EEE6F0E0A8
:102F70008081887F808314BC15BC808181608083C0
:102F8000239A85B1887085B983E88093B000E1EB1E
:102F9000F0E08081887F826080831092B3000E947D
:102FA0006E160E947D1708951F920F920FB60F9212
:102FB0001124EF92FF920F931F932F933F934F9300
:102FC0005F936F937F938F939F93AF93BF93CF93B1
:102FD000DF93EF93FF9380917801882309F0AEC3CC
:102FE00080914F018093B3009BB120917701822F94
:102FF000807E9F71892B8BB98BB1837E822B8BB99D
:103000008091760186BD82E085BD81E08093780164
:1030100078948091740190917501892B09F07FC09B
:103020000E94181FEC019093750180937401009722
:1030300009F46EC08091D2058330D1F46CA17DA1DA
:103040008EA19FA160936C0170936D0180936E01BE
:1030500090936F010E94A81680E091E7A2E0B0E093
:103060008093680190936901A0936A01B0936B010A
:103070002CA53DA54EA55FA5DA01C901B595A7957B
:1030800097958795820F931FA41FB51F809370019A
:1030900090937101A0937201B09373012E853F85C7
:1030A00048895989DA01C901B595A79597958795FA
:1030B000B095A095909581959F4FAF4FBF4F80934E
:1030C000500190935101A0935201B093530180930A
:1030D000540190935501A0935601B09357018093EA
:1030E000580190935901A0935A01B0935B0120932A
:1030F0005C0130935D0140935E0150935F0110923B
:10310000600110926101109262011092630107C088
:103110000E947D178091D30584608093D305C09170
:103120007401D0917501209709F4FFC23981309361
:103130004F01288120937701409150015091510116
:1031400060915201709153018A819B81AC81BD8154
:10315000480F591F6A1F7B1F409350015093510124
:103160006093520170935301141615061606170644
:10317000C4F524602093770180915C0190915D01FA
:10318000A0915E01B0915F01481B590B6A0B7B0B4C
:103190004093500150935101609352017093530139
:1031A00025FF0CC08091D4059091D505A091D6053E
:1031B000B091D7050197A109B1090BC08091D40541
:1031C0009091D505A091D605B091D7050196A11D86
:1031D000B11D8093D4059093D505A093D605B093E7
:1031E000D70540915401509155016091560170915D
:1031F00057018E819F81A885B985480F591F6A1F85
:103200007B1F409354015093550160935601709376
:1032100057011416150616061706D4F520917701E6
:1032200028602093770180915C0190915D01A091CD
:103230005E01B0915F01481B590B6A0B7B0B4093F9
:10324000540150935501609356017093570126FF26
:103250000CC08091D8059091D905A091DA05B09164
:10326000DB050197A109B1090BC08091D8059091A8
:10327000D905A091DA05B091DB050196A11DB11D1C
:103280008093D8059093D905A093DA05B093DB0518
:10329000E0905801F090590100915A0110915B01A2
:1032A0008A859B85AC85BD85E80EF91E0A1F1B1F0C
:1032B000E0925801F092590100935A0110935B017A
:1032C00080914E018823B9F1632F70E0882777FD44
:1032D0008095982F0E94BA322091DF063091E00647
:1032E0004091E1065091E2060E94F8340E94873234
:1032F0006093DC057093DD058093DE059093DF0518
:103300001E141F04100611060CF054C080915C01BD
:1033100090915D01A0915E01B0915F01E81AF90AF8
:103320000A0B1B0BE0925801F092590100935A01CD
:1033300010935B013FC01E141F0410061106D4F544
:103340002091770120612093770180915C01909119
:103350005D01A0915E01B0915F01E81AF90A0A0BC4
:103360001B0BE0925801F092590100935A011093FF
:103370005B0127FF0CC08091DC059091DD05A091D9
:10338000DE05B091DF050197A109B1090BC080915D
:10339000DC059091DD05A091DE05B091DF05019679
:1033A000A11DB11D8093DC059093DD05A093DE0582
:1033B000B093DF052091600130916101409162017D
:1033C000509163012F5F3F4F4F4F5F4F209360013C
:1033D0003093610140936201509363018E859F8514
:1033E000A889B989281739074A075B0708F097C1E8
:1033F0008091D205843009F05BC020916401309146
:10340000650140916601509167018091680190913A
:103410006901A0916A01B0916B01280F391F4A1F01
:103420005B1F209368013093690140936A015093B8
:103430006B01213002EE300704E0400700E0500746
:1034400008F473C12050324E44405040209368012C
:103450003093690140936A0150936B0120916C0194
:1034600030916D0140916E0150916F016CA57DA569
:103470008EA59FA5621773078407950740F00E94E9
:103480007D178091D30584608093D3054EC1790167
:103490008A01E61AF70A080B190BC801B701E09276
:1034A0006C01F0926D0100936E0110936F016CC07E
:1034B00088A999A9AAA9BBA9281739074A075B07B0
:1034C00008F065C02091640130916501409166016A
:1034D000509167018091680190916901A0916A0102
:1034E000B0916B01280F391F4A1F5B1F20936801A1
:1034F0003093690140936A0150936B01213002EED1
:10350000300704E0400700E0500708F40EC12050E7
:10351000324E4440504020936801309369014093FB
:103520006A0150936B018CA59DA5AEA5BFA5209106
:103530006C0130916D0140916E0150916F01820FCD
:10354000931FA41FB51F80936C0190936D01A093EE
:103550006E01B0936F0128AD39AD4AAD5BAD8217F6
:103560009307A407B50740F020936C0130936D01D9
:1035700040936E0150936F0160916C0170916D01E9
:1035800080916E0190916F010E94A816CEC08CA907
:103590009DA9AEA9BFA9281739074A075B0708F4F8
:1035A000A2C0281739074A075B0779F520916C01FB
:1035B00030916D0140916E0150916F0188AD99ADD0
:1035C000AAADBBAD281739074A075B0729F480E08D
:1035D00091E7A2E0B0E010C080E092EEA4E0B0E09D
:1035E000209168013091690140916A0150916B010D
:1035F000821B930BA40BB50B809368019093690118
:10360000A0936A01B0936B0190C020916401309146
:103610006501409166015091670180916801909128
:103620006901A0916A01B0916B01280F391F4A1FEF
:103630005B1F209368013093690140936A015093A6
:103640006B01213012EE310714E0410710E0510701
:1036500008F46BC02050324E444050402093680123
:103660003093690140936A0150936B0120916C0182
:1036700030916D0140916E0150916F018091700108
:1036800090917101A0917201B0917301821793071B
:10369000A407B50748F48CA59DA5AEA5BFA5281B1A
:1036A000390B4A0B5B0B04C0569547953795279508
:1036B00020936C0130936D0140936E0150936F0124
:1036C00028A539A54AA55BA580916C0190916D0153
:1036D000A0916E01B0916F0182179307A407B507FF
:1036E00008F04ACF41CF28AD39AD4AAD5BAD8091EE
:1036F0006C0190916D01A0916E01B0916F018217E4
:103700009307A407B50789F020936C0130936D01EE
:1037100040936E0150936F01CA01B90135CF1092E9
:103720007501109274010E94091F80917701909198
:10373000ED0689278093770110927801FF91EF9130
:10374000DF91CF91BF91AF919F918F917F916F91B9
:103750005F914F913F912F911F910F91FF90EF90AB
:103760000F900FBE0F901F901895F999FECF92BD44
:1037700081BD81E08FBB80B50895F894F999FECFA3
:1037800092BD81BD81E08FBB40B54627842F99272C
:1037900087FD9095262F30E082239323892B39F0E3
:1037A0006F3F19F060BD84E006C084E104C044238B
:1037B00021F060BD84E28FBBF99A789408958F92CE
:1037C0009F92AF92BF92CF92DF92EF92FF920F93B0
:1037D000DF93CF9300D0CDB7DEB75C016B017A01E8
:1037E0004A0100E01EC0002319F021E030E008C0CB
:1037F000202F332727FD30952227330F221F332711
:10380000F60161916F01062F020F9C012F5F3F4F60
:103810003A8329830E94BD1B0894810891088981FD
:103820009A8181149104F9F6C7018A0D9B1D602FBE
:103830000E94BD1B0F900F90CF91DF910F91FF90D1
:10384000EF90DF90CF90BF90AF909F908F900895B2
:10385000CF93DF93EC01FB019A0190E0B1E019C036
:10386000F999FECFF2BDE1BDBFBBA0B5992319F018
:1038700081E090E008C0892F992787FD90958827DF
:10388000990F881F992731969A2F980FA993215045
:1038900030402115310521F7460F571FF999FECF0A
:1038A00052BD41BD81E08FBB80B520E030E098176C
:1038B00011F421E030E0C901DF91CF91089580E05B
:1038C00090E065E00E94BD1B81E090E067ED76E04E
:1038D00046E350E00E94DF1B0895EF92FF920F93A2
:1038E0001F93CF93DF93EC017A018B01FC018731A9
:1038F000910540F4EC5CFF4FEE0FFF1F0590F49133
:10390000E02D099486E01FC1CB01BA0120E030E030
:1039100040E050E00E941832181614F088E013C1FD
:10392000CC0FDD1FCC0FDD1FC952D94FE882F982C1
:103930000A831B8305C1CB01BA0120E030E040E4DB
:1039400050E40E941832882314F489E0FCC0C801B6
:10395000B7010E945B350E948C326093E406F0C090
:103960004093E5065093E6066093E7067093E806F9
:10397000E7C04093E9065093EA066093EB06709324
:10398000EC06DEC0CB01BA010E94D2350E948C3217
:103990006093ED06D5C0CB01BA010E945B350E9451
:1039A0008C3260930A07CCC0CB01BA0120E030E032
:1039B00040E752E40E94F83420E030E040E752E46F
:1039C0000E94F8346093F2067093F3068093F40635
:1039D0009093F506B5C0DB01CA01BF778093F60668
:1039E0009093F706A093F806B093F906A9C0409308
:1039F000EE065093EF066093F0067093F106A0C0B8
:103A0000CB01BA010E945B350E948C3260930C0797
:103A100097C0CB01BA010E945B350E948C32609343
:103A20000B078EC0CB01BA0120E030E040E050E04F
:103A30000E941832882321F08091FA06816011C01B
:103A40008091FA068E7F0DC0CB01BA0120E030E0F4
:103A500040E050E00E941832882331F08091FA064D
:103A600082608093FA066CC08091FA068D7FF9CF50
:103A7000CB01BA0120E030E040E050E00E94183273
:103A8000882321F08091FA068460EBCF8091FA06BA
:103A90008B7FE7CFCB01BA0120E030E040E050E07F
:103AA0000E941832882321F08091FA06886003C0B2
:103AB0008091FA06877F8093FA060E945D2840C0B5
:103AC000CB01BA0120E030E040E050E00E94183223
:103AD000882321F08091FA068061C3CF8091FA0695
:103AE0008F7EBFCFCB01BA010E94D2350E948C32AB
:103AF0006093FB0625C04093FC065093FD0660933F
:103B0000FE067093FF061CC0409300075093010708
:103B1000609302077093030713C0CB01BA010E94A0
:103B20005B350E948C32709305076093040708C0D0
:103B3000409306075093070760930807709309079F
:103B40000E945F1C80E0DF91CF911F910F91FF9049
:103B5000EF900895882309F45EC080E090E0A0E231
:103B6000B2E48093D7069093D806A093D906B09379
:103B7000DA068093DB069093DC06A093DD06B09313
:103B8000DE0680E090E0A0EAB3E48093DF06909345
:103B9000E006A093E106B093E2068EE18093E4068E
:103BA00080E090E0AAEFB3E48093E5069093E60608
:103BB000A093E706B093E8068093E9069093EA069F
:103BC000A093EB06B093EC0680E098ECAFEAB7E484
:103BD0008093F2069093F306A093F406B093F50653
:103BE0008DEC9CECACECBDE38093EE069093EF067D
:103BF000A093F006B093F10689EB8093ED068DEC6F
:103C00009CECACE4BDE38093F6069093F706A0939A
:103C1000F806B093F90682E08093FA061092FB064C
:103C200080E090E0A8ECB1E48093FC069093FD0660
:103C3000A093FE06B093FF0680E090E0AAE7B3E40D
:103C40008093000790930107A0930207B0930307A6
:103C500084E690E0909305078093040780E090E06D
:103C6000A0E8BFE38093060790930707A093080797
:103C7000B09309078FEF80930A0783E080930B07C7
:103C800089E180930C070E945F1C089580E090E01A
:103C90000E94B51B853079F487ED96E061E070E015
:103CA00046E350E00E94281C20E0892B09F421E023
:103CB00081E0282712C0853078F487ED96E061E036
:103CC00070E043E250E00E94281C892B29F080E03C
:103CD0000E94AA1D21E001C020E0822F08959DE0EE
:103CE000899FC001112480509E4F4CE050E00E94FB
:103CF000DF1B08950F931F93CF93DF93162F072F8A
:103D00009DE0899FE0011124C050DE4F862F972F40
:103D1000BE014CE050E00E94281C892B11F081E08C
:103D20000FC0E12FF02F8CE0DF011D928A95E9F79B
:103D3000CE01612F702F4CE050E00E94DF1B80E02D
:103D4000DF91CF911F910F910895EF92FF921F93F2
:103D5000DF93CF93CDB7DEB72C970FB6F894DEBFC5
:103D60000FBECDBF0E94461E882341F48AE00E9408
:103D7000C32C81E00E94AA1D0E94C52F10E07E0185
:103D80000894E11CF11C812FB7010E947A1E882340
:103D900019F48AE00E94C32C1F5F1830A1F72C96FB
:103DA0000FB6F894DEBF0FBECDBFCF91DF911F914C
:103DB000FF90EF90089597E4899FC00111248050EF
:103DC0009D4F46E450E00E94DF1B08950F931F9320
:103DD000CF93DF938B0197E4899FE0011124C050BA
:103DE000DD4FCB01BE0146E450E00E94281C892B28
:103DF00011F081E009C0F8011082CE01B80146E45B
:103E000050E00E94DF1B80E0DF91CF911F910F9166
:103E100008959091B1058091B205981741F0809175
:103E2000B2058F5F823109F480E08093B205089576
:103E30009091B1058091B205981719F420E030E017
:103E400008C09091B2058CE3989F900111242758E7
:103E50003E4FC90108959091B20520E08091B305CD
:103E6000981709F421E0822F0895EF92FF920F93A3
:103E70001F936093B5057093B6058093B705909333
:103E8000B8052093B9053093BA054093BB0550930C
:103E9000BC05E092BD05F092BE050093BF051093EE
:103EA000C0051F910F91FF90EF9008958F929F9200
:103EB000AF92BF92CF92DF92EF92FF920F931F9338
:103EC000CF93DF93EC016B01009709F460C08BA1E5
:103ED000882309F05CC0EE88FF88088D198DFB01EE
:103EE000B688A788908C818CC801B7012B2D3A2DFC
:103EF000492D582D0E94183288230CF048C0C80163
:103F0000B701A80197010E94F8347B018C016091F0
:103F1000F2067091F3068091F4069091F5069058A0
:103F200020E030E040E050EC0E94F8342E8D3F8DD0
:103F300048A159A10E94F8349B01AC01C801B70106
:103F40000E943F310E9485357B018C016B2D7A2DBB
:103F5000892D982D9701A8010E941832882324F4F6
:103F6000EB2CFA2C092D182D6B2D7A2D892D982DDF
:103F70009701A8010E941832882349F0C701D8018F
:103F8000F601868B978BA08FB18F81E082A3DF91A2
:103F9000CF911F910F91FF90EF90DF90CF90BF9046
:103FA000AF909F908F9008952F923F924F925F9283
:103FB0006F927F928F929F92AF92BF92CF92DF9239
:103FC000EF92FF920F931F93DF93CF93CDB7DEB79E
:103FD00068970FB6F894DEBF0FBECDBF1C016A0113
:103FE0007B0128013901DC01D8966D917D918D917D
:103FF0009C91DB970E94B8324B015C01A7019601AE
:104000000E94F8340E9405320E948C327B018C01A0
:10401000F10164A375A386A397A3C501B401A3010D
:1040200092010E94F8340E9405320E948C32698706
:104030007A878B879C87D10198966D937D938D931A
:104040009C939B979C966D917D918D919C919F9750
:1040500022E330E040E050E00E94F1350E94BA32A5
:1040600020E030E040E752E40E94F8340E948732BA
:104070002B013C01C801B7010E94B8327B018C01C1
:10408000C301B2010E94BA326D837E838F83988709
:10409000C501B401A50194010E94F8345B016C01D3
:1040A000C801B701A80197010E94F8346D877E8787
:1040B0008F87988B6D817E818F8198859B01AC0164
:1040C0000E943F31698B7A8B8B8B9C8BC601B5012B
:1040D0002D853E854F8558890E943E3129893A8930
:1040E0004B895C890E941F320E9405320E948732F0
:1040F00069837A838B839C8369857A858B859C858C
:104100000E94B8329B01AC010E94F8346D8B7E8B0B
:104110008F8B988FA60195010E943E317B018C0107
:104120007094609450944094411C511C611C711C0B
:10413000C301B2010E94BA329B01AC010E943F311F
:104140009B01AC01C801B7010E941F320E94F532E9
:10415000F101A684B784C088D188860175012981C0
:104160003A814B815C81E21AF30A040B150B0E9421
:104170008732A8019701261B370B480B590BDA0130
:10418000C90157FF4AC0C601B5010E94BA329B015E
:10419000AC0169897A898B899C890E94F8342D85C4
:1041A0003E854F8558890E943E312D893E894F8931
:1041B000588D0E943F317B018C016D817E818F8102
:1041C000988520E030E040E850E40E94F8349B01FC
:1041D000AC01C801B7010E941F320E9405320E9443
:1041E0008732AC01CB01DA01BC01CD0197FF04C0DD
:1041F00060E070E080E090E069837A838B839C8349
:10420000A616B706C806D90624F4A982BA82CB82BC
:10421000DC8280E090E0A0E0B0E029813A814B812F
:104220005C81F10120AB31AB42AB53AB820F931FEA
:10423000A41FB51F84AB95ABA6ABB7AB68960FB602
:10424000F894DEBF0FBECDBFCF91DF911F910F91CC
:10425000FF90EF90DF90CF90BF90AF909F908F90A6
:104260007F906F905F904F903F902F9008952F9286
:104270003F924F925F927F928F929F92AF92BF92A6
:10428000CF92DF92EF92FF920F931F93CF93DF9322
:10429000D090B1058091F2069091F306A091F406BA
:1042A000B091F5061C012D0157FA509457F850941F
:1042B00000E010E0C0E0D0E0BB24B3943CE3C32EA8
:1042C00072C0DD2011F422E1D22EDA94209709F495
:1042D00063C00115110509F45FC0AA8C9B8C8C8CFE
:1042E0007D8C6E897F89888D998D2A2D392D482D59
:1042F000572D0E941832882309F44EC08BA18823C1
:1043000009F041C0F801E688F788008D118D6A2D0B
:10431000792D882D972DA80197010E942634181613
:1043200094F5C801B701A80197010E94F8347B01F8
:104330008C01C201B10120E030E040E050EC0E946D
:10434000F8342E8D3F8D48A159A10E94F8349B016D
:10435000AC01C801B7010E943F310E948535162F7C
:10436000072FF82EE92E6A2D792D882D972D212FD4
:10437000302F4F2D5E2D0E94183287FD04C0A12ED4
:10438000902E8F2C7E2C8A2D992DA82DB72D8E8BBB
:104390009F8BA88FB98FBAA2DC9CC00111248E011B
:1043A000EC01C758DE4F8091B205D81609F089CFCD
:1043B000F090B20520E030E000E010E09CE3E92E50
:1043C00011C0FE9CE0011124C758DE4FC901B8019D
:1043D000AE010E94561FF394F2E1FF1609F4FF2488
:1043E00098018E018091B105F81659F7C901B801FD
:1043F00040E050E00E94561F7090B205C0E0D0E04F
:104400008CE3582E35C0759C4001112489E791E05A
:10441000880E991E209731F18AA1882321F4F40196
:1044200082A18823F9F0EA88FB880C891D896E89AE
:104430007F89888D998DA80197010E941F325B01A9
:104440006C01F40166897789808D918DA8019701AF
:104450000E941F328B019C01CE01B601A5010E9472
:10446000D41F1AA27394F2E17F1609F47724E401B1
:104470008091B105781639F6EA88FB880C891D8988
:104480006E897F89888D998DA80197010E941F32BE
:104490005B016C0160E070E080E090E0A8019701B2
:1044A0000E941F328B019C01CE01B601A5010E9422
:1044B000D41F1AA2DF91CF911F910F91FF90EF901F
:1044C000DF90CF90BF90AF909F908F907F905F9044
:1044D0004F903F902F900895AF92BF92CF92DF926E
:1044E000EF92FF920F931F93CF93DF935B016C01C9
:1044F0009091B2058CE3989FE0011124C758DE4FDC
:10450000C601B5010E94BA322E8D3F8D48A159A136
:104510000E94F8347B018C016E857F85888999899A
:104520000E94BA329B01AC01C801B7010E941F3240
:104530006E8F7F8F88A399A3AE86BF86C88AD98ADB
:1045400080E090E0A0E0B0E08E8B9F8BA88FB98FC9
:104550008A8F9B8FAC8FBD8F1BA281E08AA30E94A4
:104560003721DF91CF911F910F91FF90EF90DF9056
:10457000CF90BF90AF9008952F923F924F925F924D
:104580006F927F928F929F92AF92BF92CF92DF9263
:10459000EF92FF920F931F93DF93CF93CDB7DEB7C8
:1045A000C855D0400FB6F894DEBF0FBECDBF29016D
:1045B0003A012996ACAEBDAECEAEDFAE2997282C1F
:1045C000E2963FACE2973091B1052CE3329F400177
:1045D000112429E731E0820E931E2091D7063091F5
:1045E000D8064091D9065091DA0625962CAF3DAFFA
:1045F0004EAF5FAF25970E94F8340E94C8342E96C4
:104600006FAF2E972F967FAF2F9760968FAF6097E3
:1046100061969FAF61978091DB069091DC06A09137
:10462000DD06B091DE0621968CAF9DAFAEAFBFAF79
:104630002197C301B20121962CAD3DAD4EAD5FADCA
:1046400021970E94F8340E94C83462966FAF629737
:1046500063967FAF639764968FAF649765969FAFBD
:1046600065972091DF063091E0064091E106509178
:10467000E20629AF3AAF4BAF5CAFC801B7010E9469
:10468000F8340E94C83466966FAF669767967FAF1E
:10469000679768968FAF689769969FAF6997D401BF
:1046A0001C922091B5053091B6054091B705509107
:1046B000B80561968CAD9DADAEADBFAD619782176B
:1046C0009307A407B5071CF480E2D4018C93E09013
:1046D000B905F090BA050091BB051091BC0565962F
:1046E0008CAD9DADAEADBFAD65978E159F05A00796
:1046F000B10724F4D4018C9180648C93A090BD0503
:10470000B090BE05C090BF05D090C00569968CAD35
:104710009DADAEADBFAD69978A159B05AC05BD05D6
:1047200024F4D4018C9180688C9361964CAC5DAC80
:104730006EAC7FAC6197421A530A640A750AF401A1
:10474000428253826482758277FE0BC08827992744
:10475000DC0184199509A609B70982839383A48390
:10476000B58365962CAD3DAD4EAD5FAD65972E1909
:104770003F09400B510B2DAB3EAB4FAB58AFD401B3
:1047800016962D933D934D935C93199757FF0EC04A
:10479000DA01C901B095A095909581959F4FAF4FD3
:1047A000BF4FF40186839783A087B187332001F13F
:1047B000E1962CAD3DAD4EAD5FADE1972F3F31059C
:1047C0004105510529F024F08FEF8093B40510C006
:1047D000E1968CAD9DADAEADBFADE197B7FF03C027
:1047E0001092B40505C0AE969FADAE979093B405F8
:1047F0008091B405D40111968C9369962CAD3DAD92
:104800004EAD5FAD69972A193B094C095D09590105
:104810006A0157FF07C022273327A9012A193B093C
:104820004C095D09D4011A962D933D934D935C93E9
:104830001D971696ED90FD900D911C91199712966B
:104840008D919D910D90BC91A02D8E159F05A00777
:10485000B10710F4D801C70182179307A407B50761
:1048600010F4DA01C901F40186879787A08BB18B18
:10487000332081F00097A105B10561F482E090E05A
:10488000A0E0B0E086879787A08BB18B8287938763
:10489000A487B587F40186859785A089B18900979B
:1048A000A105B10509F47AC2C301B2010E94BA326E
:1048B00025962CAD3DAD4EAD5FAD25970E941F32C4
:1048C00069AB7AAB8BAB9CAB6DA97EA98FA998AD78
:1048D0000E94BA3221962CAD3DAD4EAD5FAD219711
:1048E0000E941F326DA77EA78FA798ABC601B501A6
:1048F0000E94BA3229AD3AAD4BAD5CAD0E941F3279
:1049000069A77AA78BA79CA769A97AA98BA99CA953
:104910009B01AC010E94F8347B018C016DA57EA542
:104920008FA598A99B01AC010E94F8349B01AC01B2
:10493000C801B7010E943F317B018C0169A57AA5AE
:104940008BA59CA59B01AC010E94F8349B01AC0196
:10495000C801B7010E943F310E9485357B018C015F
:10496000D4015E966D937D938D939C93919760E0B7
:1049700070E080E89FE3A80197010E941F322B019D
:104980003C01222059F429966CAD7DAD8EAD9FADD2
:104990002997A30192010E94F8340CC060E070E0F6
:1049A00080E89FE329962CAD3DAD4EAD5FAD2997D4
:1049B0000E941F325B016C01C801B701A60195017D
:1049C0000E94F8342D966CAF7DAF8EAF9FAF2D97C0
:1049D000F401628B738B848B958B668577858089D8
:1049E00091890E94BA327B018C01A60195010E9437
:1049F000F8340E9405320E948C32D401D8966D930F
:104A00007D938D939C93DB972091F2063091F30672
:104A10004091F4065091F5062DA33EA34FA358A74D
:104A2000C801B701A30192010E94F8342DA13EA153
:104A30004FA158A50E94F83420E030E84BE355E43C
:104A40000E941F320E9405320E948732D4019C9638
:104A50006D937D938D939C939F9769A97AA98BA958
:104A60009CA9A30192010E94F83469A37AA38BA3A5
:104A70009CA36DA57EA58FA598A9A30192010E9474
:104A8000F8346D8F7E8F8F8F98A369A57AA58BA53B
:104A90009CA5A30192010E94F834698F7A8F8B8FB5
:104AA0009C8F9091B1058091B205981709F4B9C017
:104AB0004090CD055090CE056090CF057090D00508
:104AC000B201C30120E030E040E050E00E94263413
:104AD00018160CF0A6C06091C1057091C2058091B6
:104AE000C3059091C405905829A13AA14BA15CA19E
:104AF0000E94F8347B018C016D8D7E8D8F8D98A185
:104B00002091C5053091C6054091C7055091C80553
:104B10000E94F8349B01AC01C801B7010E943E31EC
:104B20007B018C01698D7A8D8B8D9C8D2091C905BF
:104B30003091CA054091CB055091CC050E94F834C4
:104B40009B01AC01C801B7010E943E317B018C0181
:104B500023E333E343E75FE30E94183288230CF03A
:104B600060C0B201C3012D962CAD3DAD4EAD5FAD21
:104B70002D970E94183287FD08C02D968CAD9DADF3
:104B8000AEADBFAD2D972C013D01C801B70123E3A8
:104B900033E343E75FEB0E94263418160CF046C05F
:104BA00060E070E080E89FE3A80197010E943E3139
:104BB00020E030E040E05FE30E94F8340E94853559
:104BC0005B016C016DA17EA18FA198A52091F606D5
:104BD0003091F7064091F8065091F9060E94F8349A
:104BE000A60195010E94F8347B018C0160E070E021
:104BF00080E89FE3A60195010E943E319B01AC0134
:104C0000C801B7010E941F320E9485357B018C01CB
:104C1000B201C3019701A8010E94183287FD06C0A6
:104C200007C0EE24FF2400E010E002C072018301FF
:104C3000C701D801F401828F938FA48FB58F6DA126
:104C40007EA18FA198A5905820E030E040E050EC84
:104C50000E94F834D4015E962D913D914D915C9166
:104C600091970E94F83420E030E040E050E00E944C
:104C70003F310E948535D62EC72EB82EA92EB701FA
:104C8000C8012D2D3C2D4B2D5A2D0E94183287FD29
:104C900004C0ED2CFC2C0B2D1A2DC701D801F401FA
:104CA000868B978BA08FB18F628973898489958950
:104CB0002D2D3C2D4B2D5A2D0E94183218162CF0FC
:104CC00081E0D40193968C9302C0F40113A281E099
:104CD000D40192968C93298D3A8D4B8D5C8D2D8BC2
:104CE0003E8B4F8B588F8D8D9E8DAF8DB8A1898B4C
:104CF0009A8BAB8BBC8B29A13AA14BA15CA12D87D0
:104D00003E874F87588B69968CAD9DADAEADBFADDC
:104D1000699789879A87AB87BC8765962CAD3DAD2F
:104D20004EAD5FAD65972D833E834F835887619667
:104D30008CAD9DADAEADBFAD619789839A83AB83DA
:104D4000BC83A1ECB5E0FE013D968CE001900D9294
:104D50008150E1F7F40182899389A489B589809310
:104D6000CD059093CE05A093CF05B093D00580914B
:104D7000B3058093B1058091B1058F5F823109F44D
:104D800080E08093B305A5EBB5E0FE0131968CE0A1
:104D900001900D928150E1F70E943721C85ADF4FF0
:104DA0000FB6F894DEBF0FBECDBFCF91DF911F913C
:104DB0000F91FF90EF90DF90CF90BF90AF909F90BA
:104DC0008F907F906F905F904F903F902F900895BD
:104DD0001F931CE306C00E9429148091D1058823EB
:104DE00091F49091B1058091B205981741F08091AE
:104DF000B205819FC001112487589E4F61F78091B1
:104E0000D205833041F31F9108958091B1058093BD
:104E1000B2058091B1058F5F823109F480E0809303
:104E2000B3058CE1E5EBF5E0DF011D928A95E9F72A
:104E30001092B40508956F927F928F929F92AF92D5
:104E4000BF92CF92DF92EF92FF920F931F93CF9377
:104E5000DF934C013B015A01FB018081F401E80F13
:104E6000F11DEF0189918D3229F481812196CC24A5
:104E7000C39405C08B3211F481812196CC2420E0AB
:104E800030E040E050E0DD24E0E070E0682F605367
:104E90006A30F8F4EF5FE930C0F47111DA94DA01A6
:104EA000C901F2E0880F991FAA1FBB1FFA95D1F71D
:104EB000280F391F4A1F5B1F220F331F441F551F26
:104EC000260F311D411D511D09C0772339F4D3949C
:104ED00005C06E3F29F4772319F471E08991D6CF8C
:104EE000EE2319F420E030E051C0CA01B9010E945C
:104EF000B8327B018C0120E030E040E050E00E94BD
:104F00001832882369F42BC0C801B7012AE037EDB5
:104F100043E25CE30E94F8347B018C01F2E0DF0E97
:104F20008FEFD8168CF3D81659F4C801B7012DECC1
:104F30003CEC4CEC5DE30E94F8347B018C010FC02B
:104F4000DD2069F0C801B70120E030E040E251E423
:104F50000E94F8347B018C01DA941D149CF3CC2060
:104F600049F0D801C701B058F50180839183A2832D
:104F7000B38305C0F501E082F18202831383882D9B
:104F800080958C0FF301808321E030E0C901DF912F
:104F9000CF911F910F91FF90EF90DF90CF90BF9036
:104FA000AF909F908F907F906F90089520EA3FE0A0
:104FB00004C0F9013197F1F701970097D1F70895EF
:104FC0001F93A0EABFE040E951E015E335E031C0AE
:104FD0006A3071058105910540F4232F2A95F1F778
:104FE000615070408040904024C064367105810556
:104FF000910540F4212F2A95F1F76A5070408040C6
:10500000904017C0683E23E0720720E0820720E04E
:10501000920740F4FA013197F1F7645670408040EE
:10502000904007C0FD013197F1F7685E7340804002
:105030009040611571058105910551F61F91089504
:10504000EF92FF920F931F936091D4057091D50555
:105050008091D6059091D7052091D8053091D9053A
:105060004091DA055091DB05E090DC05F090DD051C
:105070000091DE051091DF050E94351F6091D40577
:105080007091D5058091D6059091D7052091D805CE
:105090003091D9054091DA055091DB05E090DC05AF
:1050A000F090DD050091DE051091DF050E942209D8
:1050B0001F910F91FF90EF90089584B1897F84B97B
:1050C00085B1866085B98091FA0683FF09C0809119
:1050D0006B00866080936B0080916800816008C0DF
:1050E00080916B00897F80936B00809168008E7F38
:1050F0008093680008952F923F924F925F926F9233
:105100007F928F929F92AF92BF92CF92DF92EF9257
:10511000FF920F931F93DF93CF93CDB7DEB7A9977D
:105120000FB6F894DEBF0FBECDBF8EA36FA348A706
:1051300038014901FE0131968CE0DF011D928A950C
:10514000E9F70EA100FD02C010E00FC06091D70684
:105150007091D8068091D9069091DA060E94C834E1
:1051600069837A838B839C8311E001FF0FC01F5FEB
:105170006091DB067091DC068091DD069091DE0681
:105180000E94C8346D837E838F83988702FF0FC08F
:105190001F5F6091DF067091E0068091E1069091BB
:1051A000E2060E94C83469877A878B879C87898545
:1051B0009A85AB85BC852D803E804F80588428160B
:1051C00039064A065B0610F41C012D0189819A817B
:1051D000AB81BC81281639064A065B0610F41C0117
:1051E0002D01612F70E080E090E00E94B8320E94B3
:1051F00085355B016C01C201B1010E94B832A60184
:1052000095010E941F327B018C012091F2063091A2
:10521000F3064091F4065091F5060E94F83420E020
:1052200030E84BE355E40E941F320E9405320E9491
:105230008C326AA37BA38CA39DA3C401B301A601F6
:1052400095010E94F8349B01AC01C801B7010E948E
:10525000F8349B01AC0160EC71EE84E69CE40E94A2
:105260001F320E94C8347B018C01B8EFEB16B4E208
:10527000FB06B1E00B07B0E01B0718F4570168010B
:1052800007C038EFA32E34E2B32E31E0C32ED12C69
:105290002091FB06207E8091ED06282729A33FA1BF
:1052A000332319F480EE282729A3D201C101B69532
:1052B000A79597958795662477244301681A790AFC
:1052C0008A0A9B0A8091E406B601A501481B510990
:1052D000610971094D8B5E8B6F8B788F6D8E7E8E21
:1052E0008F8E98A2698E7A8E8B8E9C8E198A1A8ADE
:1052F0001B8A1C8A60E177E280E090E06D877E8700
:105300008F87988B74E089A1872789A733B198A5E7
:10531000992311F0A6E03A27BEA1B0FF1AC08981F7
:105320009A81AB81BC81680E791E8A1E9B1E161461
:105330001704180419046CF431FF02C029A504C035
:105340002EA12E7F2EA329A1621873088408950828
:1053500001C029A14EA141FF29C08D819E81AF814D
:10536000B8854D8D5E8D6F8D78A1480F591F6A1FCE
:105370007B1F4D8F5E8F6F8F78A314161506160650
:105380001706A4F432FF03C058E0252703C06EA11E
:105390006D7F6EA38D8D9E8DAF8DB8A182199309FF
:1053A000A409B5098D8F9E8FAF8FB8A39EA192FFE0
:1053B00029C089859A85AB85BC85498D5A8D6B8DB1
:1053C0007C8D480F591F6A1F7B1F498F5A8F6B8F27
:1053D0007C8F1416150616061706C4F433FF03C097
:1053E00050E1252703C06EA16B7F6EA3898D9A8D36
:1053F000AB8DBC8D82199309A409B509898F9A8F49
:10540000AB8FBC8F9EA1992309F46DC08091D30509
:1054100084FD69C08BB12C71837E282B2BB96091E0
:10542000E40670E080E090E00E94E027A9A1ABB91B
:105430006D897E898F89988D0E94E027EA14FB048C
:105440000C051D0508F062CF2D853E854F855889D6
:105450002A0D3B1D4C1D5D1D2D873E874F87588BA8
:1054600021326EE4360760E0460760E0560708F434
:105470004DCF20523E44404050402D873E874F87BD
:10548000588B89899A89AB89BC892AA13BA14CA1F7
:105490005DA1820F931FA41FB51F898B9A8BAB8BC5
:1054A000BC8B60E077E883E993E029893A894B89EE
:1054B0005C890E941036C901DA015C016D01AE14ED
:1054C000BF04C006D10610F4570168018091E406BC
:1054D000B601A501481B5109610971094D8B5E8B0D
:1054E0006F8B788F13CFA9960FB6F894DEBF0FBEDF
:1054F000CDBFCF91DF911F910F91FF90EF90DF9083
:10550000CF90BF90AF909F908F907F906F905F9063
:105510004F903F902F900895FF920F931F930E94FA
:105520006E1600910007109101072091020730913B
:10553000030784E061E040E00E947B2800910007BF
:1055400010910107209102073091030783E061E089
:1055500040E00E947B2880910407909105070E94FB
:10556000D62742E0F42EFA940091FC061091FD0635
:105570002091FE063091FF0687E060E041E00E9446
:105580007B2880910407909105070E94D62781E02F
:10559000F816A1F40091FC061091FD062091FE067C
:1055A0003091FF0687E061E040E00E947B28809117
:1055B0000407909105070E94D627D5CFFF2099F6C2
:1055C0000E947D171F910F91FF9008951F920F92D7
:1055D0000FB60F9211242F933F934F935F936F93C6
:1055E0007F938F939F93AF93BF93EF93FF9380919C
:1055F000D205863059F08091D30585FD07C00E9401
:1056000029048091D30580648093D305FF91EF91A5
:10561000BF91AF919F918F917F916F915F914F91CA
:105620003F912F910F900FBE0F901F9018958F9262
:105630009F92AF92BF92CF92DF92EF92FF920F9321
:105640001F93DF93CF93CDB7DEB72A970FB6F894A9
:10565000DEBF0FBECDBF7B018C0120E030E040E01B
:1056600050E00E94183288233CF48DE20E943913E6
:1056700017FB109517F91095A0900B07DA2C0CC0AA
:10568000C801B70120E030E048EC52E40E94F83451
:105690007B018C018EEFD80EE1E0ED1588F3A0FEC2
:1056A0000AC0C801B70120E030E040E251E40E94A6
:1056B000F8347B018C01C801B70120E030E040E004
:1056C0005FE30E943F310E9487326B017C019E01A3
:1056D0002F5F3F4FF901EA0DF11D8EE28083BB245D
:1056E00049011EC0BA1409F4B39484010B0D111DB5
:1056F000C701B6012AE030E040E050E00E941036D9
:10570000605DF8016083B394C701B6012AE030E020
:1057100040E050E00E941036C901DA016C017D01C1
:10572000C114D104E104F104E9F606C0FC01EB0D5B
:10573000F11D2083B39403C0CE01019620E3BA1477
:10574000A8F3BA1489F48B2D8F5FFE01E80FF11DC9
:1057500090E39183B82EB39407C0FE01EB0DF11DC9
:1057600080810E943913BA94BB20B9F72A960FB6EC
:10577000F894DEBF0FBECDBFCF91DF911F910F9187
:10578000FF90EF90DF90CF90BF90AF909F908F9061
:1057900008958F929F92BF92CF92DF92EF92FF92E5
:1057A0000F931F93DF93CF93CDB7DEB72A970FB632
:1057B000F894DEBF0FBECDBF7B018C0197FF0BC0FD
:1057C0008DE20E94391310950095F094E094E11C4D
:1057D000F11C011D111D67017801C114D104E10400
:1057E000F10421F480E30E9439132FC0BB244E0141
:1057F0000894811C911C84010B0D111DC701B60179
:105800002AE030E040E050E00E941036605DF80190
:105810006083B394C701B6012AE030E040E050E075
:105820000E941036C901DA016C017D01C114D10456
:10583000E104F10401F707C0FE01EB0DF11D8081C9
:105840000E943913BA94BB20B9F72A960FB6F89480
:10585000DEBF0FBECDBFCF91DF911F910F91FF90A3
:10586000EF90DF90CF90BF909F908F9008950F930F
:105870001F93DF93CF93CDB7DEB728970FB6F89479
:10588000DEBF0FBECDBF982FFE0131969E01275F70
:105890003F4F892F817081939695E217F307C9F7DF
:1058A0008E01085F1F4FF8018081805D0E943913CF
:1058B000015010400C171D07B1F728960FB6F89449
:1058C000DEBF0FBECDBFCF91DF911F910F91089525
:1058D000CF93DF93EC0102C00E943913FE012196A1
:1058E00084918823C9F7DF91CF910895CF93DF93F7
:1058F000EC0103C021960E94391388818823D1F7D7
:10590000DF91CF9108950E942517882319F08AE02E
:1059100091E002C081EE90E00E94682C089588EA30
:1059200094E00E94682C089586ED95E00E94682C12
:1059300008951F93182F84E496E00E94682C13307A
:1059400091F0143028F4113041F01230B1F408C055
:10595000143061F0153089F40CC082E396E00BC07E
:105960008EE196E008C08CE096E005C084E096E009
:1059700002C08BEF95E00E94682C87EF95E00E94B3
:10598000682C1F9108951F93182F882319F48DE612
:1059900097E050C085E697E00E94682C173091F19F
:1059A000183070F4133011F1143028F41130C1F0B4
:1059B0001230F1F518C01530F9F0163000F519C0A5
:1059C0001A3049F11B3028F41830F9F0193081F5FC
:1059D0001FC01C3031F11C3008F11D3049F524C0C6
:1059E00083E597E023C08BE397E020C085E297E052
:1059F0001DC086E197E01AC080E097E017C08EEEE8
:105A000096E014C08DED96E011C081ED96E00EC0D9
:105A100082EC96E00BC081EA96E008C082E996E04D
:105A200005C087E896E002C089E796E00E94682CEE
:105A300086E796E00E94682C1F910895AF92BF926E
:105A4000CF92DF92EF92FF920F931F93DF93CF934A
:105A5000CDB7DEB768970FB6F894DEBF0FBECDBFE7
:105A6000DE011196E4EDF5E08CE001900D9281509D
:105A7000E1F78091D2058430C9F0853038F4823066
:105A800079F0833080F4882341F01DC08630A1F086
:105A9000863078F08730B9F412C08AE691E011C000
:105AA00083E691E00EC08EE591E00BC088E591E0C1
:105AB00008C082E591E005C08BE491E002C084E477
:105AC00091E00E94682C8DE391E00E94682C8DE0AB
:105AD000E82EF12CEC0EFD1E670100E010E05E01E7
